:10034900446576696365204F6E65204F6E0044658C
:1003590076696365204F6E65204F66660044657651
:100369006963652054776F204F6E00446576696331
:10037900652054776F204F6666004465766963652A
:10038900205468726565204F6E004465766963651F
:10039900205468726565204F666600202020202061
:1003A9002020202020202020202020004E6F207493
:0B03B900686973206465766963650065
:10046100040F00FF16E6030800000002134F00020C
:030471000C580024
:100475007580FFC290D291C295D2952087F5C2951D
:010485002254
:10000300120475C2958F80D290C291D295C2952267
:10048600120475C2958F80C290C291D295C29522F0
:0803C4007A0379A47BFF7FC0DE
:1003CC008B1A8A1B891C120486AB1AAA1BA91C1235
:1003DC0004346013051CE51C7002051B14F912048F
:0703EC0034FF12000380E260
:0103F30022E7
:10044D007F011204867F381204867F0C1204867F8A
:04045D000602048609
:0704AA00D28AD2AAD2AF22D0
:0C049600758921758DFD758BFDD28E22BD
:0404B10075985022C8
:0804A2008F993099FDC29922E7
:1003F400E4F58AF58CD28C20B305E58C30E7F8C29D
:100404008CAF8CEFFEAD8A7C00E42DFFEC3EFE2227
:10041400E4F58AF58CD28C30B305E58C30E7F8C26C
:100424008CAF8CEFFEAD8A7C00E42DFFEC3EFE2207
:1001C20012044D7B007A00790C7F801203CC7B00F5
:1001D2007A00790C7F811203CC7B007A00790C7F44
:1001E200821203CC1204961204B11204AA3098FDB2
:1001F20085990EE50EC31324FE6041146074240237
:1002020060030202AAE50E5401F45401F508120338
:10021200C4E5087BFF60117A0379497FC01203CCE1
:100222007B007A007913800F7A0379577FC012031B
:10023200CC7B007A00790C7F800202B5E50E540176
:10024200F45401F5091203C4E5097BFF60117A0336
:1002520079667FC01203CC7B007A007913800F7A13
:100262000379747FC01203CC7B007A00790C7F8102
:100272008041E50E5401F45401F50A1203C4E50A63
:100282007BFF60117A0379837FC01203CC7B007AF3
:10029200007913800F7A0379937FC01203CC7B001D
:1002A2007A00790C7F82800B1203C47BFF7A037978
:0B02B200B57FC01203CCC2980201EF20
:03001300020016D2
:10001600C0E0C083C082C0D075D000C000C001C09F
:0B00260002C003C004C005C006C007F4
:100031001203F4C3EF9499EE941E50030201A9D365
:10004100EF9433EE942240030201A9120414C3EF8A
:100051009466EE940E50030201A9D3EF9400EE943E
:100061001240030201A97515007516001203F4C3AD
:10007100EF94B8EE940050030201A9D3EF94E1EE9E
:10008100940240030201A9120414C3EF94B8EE9440
:100091000050030201A9D3EF9433EE940740030209
:1000A10001A9740F2515F8C000E6FDC313D000F6B1
:1000B100D3EF9408EE94044009740F2515F8E64433
:1000C10080F60516C3E51664809488409F0515C324
:1000D100E515648094844091E51124E8604624BAD2
:1000E100607C2452600302019F1203C4E5087BFF78
:1000F10060117A0379577FC01203CC7B007A0079B3
:100101000C800F7A0379497FC01203CC7B007A00FF
:1001110079137F801203CC6308FFE508F45401448E
:10012100020201971203C4E5097BFF60117A03798A
:10013100747FC01203CC7B007A00790C800F7A03A4
:1001410079667FC01203CC7B007A0079137F81121C
:1001510003CC6309FFE509F4540144048038120318
:10016100C4E50A7BFF60117A0379937FC01203CC47
:100171007B007A00790C800F7A0379837FC01203A8
:10018100CC7B007A0079137F821203CC630AFFE5EE
:100191000AF454014406F50BFF1204A2800A12036B
:0801A100C47A0379B51203C80A
:1001A900D007D006D005D004D003D002D001D000AA
:0901B900D0D0D082D083D0E03216
:030000000202BD3C
:0C02BD00787FE4F6D8FD75811C02030474
:10043400BB010689828A83E0225002E722BBFE02C6
:09044400E32289828A83E49322F9
:1002C9000201C2E493A3F8E493A34003F68001F288
:1002D90008DFF48029E493A3F85407240CC8C33336
:1002E900C4540F4420C8834004F456800146F6DF05
:1002F900E4800B0102040810204080900461E47E30
:10030900019360BCA3FF543F30E509541FFEE493F9
:10031900A360010ECF54C025E060A840B8E493A3C0
:10032900FAE493A3F8E493A3C8C582C8CAC583CAEB
:10033900F0A3C8C582C8CAC583CADFE9DEE780BEA3
:010474000087
:00000001FF
