:0A020E00C0F9A4B0999282F8809024
:06022700040A00FF16E6C8
:07022000D28AD2AAD2AF225C
:0C000300758921758DFD758BFDD28E2254
:04000F00759850226E
:080218008F993099FDC2992273
:0B020300C294D293C290D291D29222FA
:1001C300E4F58AF58CD28C20B305E58C30E7F8C2D0
:1001D3008CAF8CEFFEAD8A7C00E42DFFEC3EFE225B
:1001E300E4F58AF58CD28C30B305E58C30E7F8C2A0
:1001F3008CAF8CEFFEAD8A7C00E42DFFEC3EFE223B
:1001910012020312000312000F1202203098FD8593
:1001A1009909E509C31324FE600C14600E24027042
:1001B100EBE509139287E509139286E50913928508
:0201C10080DAE2
:03001300020016D2
:10001600C0E0C0D075D000C000C004C005C006C096
:0100260007D2
:100027001201C3C3EF9499EE941E50030200F6D356
:10003700EF9433EE942240030200F61201E3C3EF7C
:100047009466EE940E50030200F6D3EF9400EE94FC
:100057001240030200F6750E00750F001201C3C3AC
:10006700EF94B8EE940050030200F6D3EF94E1EE5C
:100077009402507B1201E3C3EF94B8EE9400406FF3
:10008700D3EF9433EE94075066740A250EF8C00038
:10009700E6FDC313D000F6D3EF9408EE94044009AD
:1000A700740A250EF8E64480F6050FC3E50F648051
:1000B700948840A8050EC3E50E64809484409AE5B1
:1000C7000C24E8601224BA601824527022B287A266
:1000D70087E43344028012B286A286E43344048064
:0F00E70008B285A285E4334406F508FF1202181B
:0F00F600D007D006D005D004D000D0D0D0E03253
:03000000020105F5
:0C010500787FE4F6D8FD75810F02014CF4
:10011100020191E493A3F8E493A34003F68001F272
:1001210008DFF48029E493A3F85407240CC8C333EF
:10013100C4540F4420C8834004F456800146F6DFBE
:10014100E4800B0102040810204080900227E47E25
:10015100019360BCA3FF543F30E509541FFEE493B3
:10016100A360010ECF54C025E060A840B8E493A37A
:10017100FAE493A3F8E493A3C8C582C8CAC583CAA5
:10018100F0A3C8C582C8CAC583CADFE9DEE780BE5D
:01022D0000D0
:00000001FF
